:100000000C94E0000C9408010C9408010C944D072A
:100010000C944D070C944D070C9408010C940801A6
:100020000C9408010C9408010C9408010C9408012C
:100030000C9408010C9408010C9408010C9408011C
:100040000C9472060C9408010C94A2050C947C0587
:100050000C9408010C9408010C9408010C940801FC
:100060000C9408010C94080100407A10F35A00A087
:10007000724E18090010A5D4E80000E87648170071
:1000800000E40B54020000CA9A3B000000E1F505B1
:10009000000080969800000040420F000000A086FB
:1000A00001000000102700000000E803000000002D
:1000B0006400000000000A000000000001000000D1
:1000C00000002C76D888DC674F0823DFC1DFAE59EB
:1000D000E1B1B796E5E3E453C63AE651997696E87E
:1000E000E6C28426EB898C9B62ED407C6FFCEFBC02
:1000F0009C9F40F2BAA56FA5F490055A2AF75C932D
:100100006B6CF9676DC11BFCE0E40D47FEF520E662
:10011000B500D0ED902E0300943577050080841E45
:10012000080000204E0A000000C80C333333330FA0
:10013000986E12831141EF8D2114893BE65516CF3D
:10014000FEE6DB18D1844B381BF77C1D901DA4BB49
:10015000E424203284725E228100C9F124ECA1E5FE
:100160003D2700000000240027002A0000000008AE
:10017000000201000003040700000000000000006E
:1001800000000000250028002B00000000002300D4
:1001900026002900040404040404040402020202E8
:1001A000020203030303030301020408102040803A
:1001B0000102040810200102040810205F0D550DF3
:1001C00011241FBECFEFD8E0DEBFCDBF23E0A2EFEA
:1001D000B1E001C01D92A732B207E1F711E0A0E043
:1001E000B1E0E6EDFBE202C005900D92A23FB1073F
:1001F000D9F710E0CFEDD0E004C02197FE010E94B6
:10020000CC13CE3DD107C9F70E94FB080C94DE1534
:100210000C940000CF92DF92EF92FF920F931F9306
:10022000CF93DF936C017A018B01C0E0D0E0CE1553
:10023000DF0589F0D8016D918D01D601ED91FC911A
:100240000190F081E02DC6010995892B11F47E0102
:1002500002C02196ECCFC701DF91CF911F910F9182
:10026000FF90EF90DF90CF900895FC01538D448D67
:10027000252F30E0842F90E0821B930B541710F051
:10028000CF96089501970895FC01918D828D98175E
:1002900061F0828DDF01A80FB11D5D968C91928D6A
:1002A0009F5F9F73928F90E008958FEF9FEF089567
:1002B000FC01918D828D981731F0828DE80FF11D30
:1002C000858D90E008958FEF9FEF0895FC01918D4B
:1002D000228D892F90E0805C9F4F821B91098F7344
:1002E000992708958FE492E00E94660121E0892B0E
:1002F00009F420E0822F0895FC01848DDF01A80F0E
:10030000B11DA35ABF4F2C91848D90E001968F733D
:100310009927848FA689B7892C93A089B1898C915C
:1003200080648C93938D848D981306C00288F38922
:10033000E02D80818F7D80830895EF92FF920F934F
:100340001F93CF93DF93EC0181E0888F9B8D8C8D81
:10035000981305C0E889F989808185FD24C0F62EAF
:100360000B8D10E00F5F1F4F0F731127E02E8C8D48
:10037000E8120CC00FB607FCFACFE889F989808132
:1003800085FFF5CFCE010E947C01F1CF8B8DFE0160
:10039000E80FF11DE35AFF4FF0820B8FEA89FB89CA
:1003A0008081806207C0EE89FF896083E889F989CE
:1003B00080818064808381E090E0DF91CF911F9104
:1003C0000F91FF90EF900895CF93DF93EC01888D0C
:1003D0008823C9F0EA89FB89808185FD05C0A88949
:1003E000B9898C9186FD0FC00FB607FCF5CF8081CF
:1003F00085FFF2CFA889B9898C9185FFEDCFCE0119
:100400000E947C01E7CFDF91CF91089580E090E0DA
:10041000892B29F00E94720181110C94000008952B
:100420008E3008F08E508770806480937C008091BD
:100430007A00806480937A0080917A0086FDFCCFF8
:10044000809178002091790090E0922B08953FB739
:10045000F8948091370290913802A0913902B091BE
:100460003A0226B5A89B05C02F3F19F00196A11DA1
:10047000B11D3FBFBA2FA92F982F8827820F911D3A
:10048000A11DB11DBC01CD0142E0660F771F881F81
:10049000991F4A95D1F708958F929F92AF92BF927C
:1004A000CF92DF92EF92FF926B017C010E942702B4
:1004B0004B015C01C114D104E104F104F1F00E948C
:1004C0002702DC01CB0188199909AA09BB09883EDA
:1004D0009340A105B10570F321E0C21AD108E108EB
:1004E000F10888EE880E83E0981EA11CB11CC1148F
:1004F000D104E104F10419F7DDCFFF90EF90DF9014
:10050000CF90BF90AF909F908F9008952FB7F894A1
:1005100060913302709134028091350290913602DD
:100520002FBF089520913D0230913E0228173907D0
:1005300071F490913B0280913C02981741F0E09158
:100540003B02F0E0EE50FE4F808190E008958FEF87
:100550009FEF089508951F93CF93DF93DC015C967E
:100560002D913C915D972115310539F481E090E0A2
:1005700013969C938E9312973DC05196ED91FC91EA
:10058000529750969C915097892F80951FB75E96F1
:100590004C915E9741FB772770F941FD6095F89487
:1005A0004081772311F0492B01C048234083E901A2
:1005B0002197F1F748E0508160FF02C0592B01C03C
:1005C00058235083E9012197F1F76695415099F737
:1005D000772321F090818923808303C08081982B29
:1005E00090831FBF5C968D919C915D970197F1F769
:1005F00021E030E0C901DF91CF911F910895209152
:100600003D0230913E022817390771F480913C0277
:1006100020913B0290E0805C9F4F821B910960E437
:1006200070E00E948213089580E090E00895209188
:100630003D0230913E0228173907B9F490913B02F0
:1006400080913C02981789F0E0913B02F0E0EE5077
:10065000FE4F808120913B0230E02F5F3F4F2F7390
:10066000332720933B0290E008958FEF9FEF08958A
:10067000E0913D02F0913E02E817F90769F4A38981
:10068000B4899C918589809589238C9310923E0230
:1006900010923D0281E0089580E00895089580E081
:1006A00090E008950E94C9150F931F93CF93DF9395
:1006B000EC0188819981009729F02A813B812617D6
:1006C000370788F48B016F5F7F4F0E94FF140097FC
:1006D00061F0998388831B830A832C813D81232BBE
:1006E00011F4FC01108281E001C080E0DF91CF9124
:1006F0001F910F910895EF92FF920F931F93CF9345
:10070000DF93FC01248135816115710511F480E0CE
:1007100019C041155105A9F07B01EC018A01020FB6
:10072000131FB8010E945403882389F3288139815B
:100730008C819D81B701820F931F0E94D7151D8365
:100740000C8381E0DF91CF911F910F91FF90EF908B
:100750000895CF93DF93EC0188819981009711F080
:100760000E946714198218821D821C821B821A82C1
:10077000DF91CF910895CF93DF93EC01611571055F
:1007800061F0FB0101900020E9F73197AF01461BB2
:10079000570B0E947B03811103C0CE010E94A90365
:1007A000CE01DF91CF910895CF93DF93EC01FB0150
:1007B00044815581608171810E947B03811103C056
:1007C000CE010E94A903CE01DF91CF910895EF924F
:1007D000FF920F931F93CF93DF93EC017B018A016C
:1007E000BA010E945403811104C0CE010E94A903E2
:1007F00007C01D830C83B701888199810E94D7159A
:10080000CE01DF91CF911F910F91FF90EF9008954E
:10081000FB01DC0111961C921E9213961C921E92F3
:10082000129715961C921E9214978617970749F0F7
:10083000608171816115710521F0448155810C94AD
:10084000E7030895FC01118210821382128215823F
:1008500014826115710551F0FB0101900020E9F748
:100860003197AF01461B570B0C94E7030895FC0129
:10087000808191810C946714EF92FF920F931F93E4
:10088000CF93DF93CDB7DEB762970FB6F894DEBF94
:100890000FBECDBF8C01CB01F801118210821382F3
:1008A00012821582148250E09E012F5F3F4F790122
:1008B000B9010E94620EF70101900020E9F731971B
:1008C000AF014E195F09B701C8010E94E7036296A4
:1008D0000FB6F894DEBF0FBECDBFDF91CF911F9151
:1008E0000F91FF90EF9008956115710579F0FB016C
:1008F00001900020E9F73197AF01461B570BDC014F
:10090000ED91FC910280F381E02D099480E090E06C
:1009100008950F931F93CF93DF93EC01E881F98142
:10092000DB0114964D915C9115976D917C9102803D
:10093000F381E02D09958C0166E371E0CE010E9400
:100940007404800F911FDF91CF911F910F91089533
:10095000BF92CF92DF92EF92FF920F931F93CF93AC
:10096000DF9300D0CDB7DEB78C017B016A01B22ED8
:1009700068E371E00E942204B7018CEE92E00E94CD
:1009800089040E9486020D2C000CEE08FF08C60E9A
:10099000D71EE81EF91E0E9486026C157D058E0585
:1009A0009F05A8F48CEE92E00E94FF02892B99F338
:1009B0008CEE92E00E94170389831A8241E050E096
:1009C000BE016F5F7F4FC8010E947B03EBCFBB204E
:1009D00029F0B8018FE492E00E948904C8010F90C9
:1009E0000F90DF91CF911F910F91FF90EF90DF90CB
:1009F000CF90BF900895EF92FF920F931F93CF93E4
:100A0000DF93CDB7DEB769970FB6F894DEBF0FBEA0
:100A1000CDBF7C0168E371E0CE0108960E942204FC
:100A20004AE08E010F5F1F4FB801F7018481958165
:100A30000E94780EF80101900020E9F73197AF018C
:100A4000401B510BB801CE0108960E947B0369E35D
:100A500071E0C8010E942204BE01685F7F4FC80197
:100A60000E94D403BC01CE010E960E94080421E02E
:100A70004AE050E0BE01625F7F4FCE0144960E9483
:100A8000A804CE0144960E943704CE010E960E941F
:100A90003704C8010E94370464E670E080E090E00B
:100AA0000E944C02B701C8010E94080421E04AE0FC
:100AB00050E0B801CE010E960E94A804CE010E9619
:100AC0000E943704C8010E94370464E670E080E0A9
:100AD00090E00E944C02CE0108960E94370469966D
:100AE0000FB6F894DEBF0FBECDBFDF91CF911F913F
:100AF0000F91FF90EF9008951F920F920FB60F92F3
:100B000011242F933F934F935F936F937F938F9312
:100B10009F93AF93BF93EF93FF938FE492E00E9474
:100B20007C01FF91EF91BF91AF919F918F917F9148
:100B30006F915F914F913F912F910F900FBE0F904A
:100B40001F9018951F920F920FB60F9211242F939A
:100B50008F939F93EF93FF93E0915F02F091600278
:100B60008081E0916502F091660282FD12C0908161
:100B7000809168028F5F8F7320916902821751F014
:100B8000E0916802F0E0E15BFD4F958F8093680291
:100B900001C08081FF91EF919F918F912F910F90D4
:100BA0000FBE0F901F90189590E0FC01E459FE4F86
:100BB0003491FC01E855FE4F2491FC01EC56FE4FA8
:100BC000E491EE2309F43BC0332339F1333091F043
:100BD00038F43130A9F0323001F584B58F7D12C080
:100BE000373091F03830A1F03430B9F48091800082
:100BF0008F7D03C0809180008F77809380000DC02F
:100C000084B58F7784BD09C08091B0008F7703C011
:100C10008091B0008F7D8093B000F0E0EE0FFF1F59
:100C2000E058FE4FA591B4918FB7F894EC91611103
:100C300003C020952E2301C02E2B2C938FBF089527
:100C4000CF93DF93EC0160E08E810E94D40561E0D8
:100C50008E810E94D40560E08E810E94D4058BE8CD
:100C600091E00197F1F7DF91CF910895CF93DF9352
:100C700090E0FC01E855FE4F2491FC01EC56FE4F3C
:100C80008491882361F190E0880F991FFC01EE594F
:100C9000FE4FC591D491FC01E058FE4FA591B4914F
:100CA000611109C09FB7F8948881209582238883B9
:100CB000EC912E230BC0623061F49FB7F894388119
:100CC000822F809583238883EC912E2B2C939FBFBA
:100CD00006C08FB7F894E8812E2B28838FBFDF9151
:100CE000CF9108951F920F920FB60F9211242F9358
:100CF0003F938F939F93AF93BF93809133029091D3
:100D00003402A0913502B09136023091320223E0D4
:100D1000230F2D3720F40196A11DB11D05C026E833
:100D2000230F0296A11DB11D20933202809333023E
:100D300090933402A0933502B0933602809137022B
:100D400090913802A0913902B0913A020196A11D0A
:100D5000B11D8093370290933802A0933902B0936B
:100D60003A02BF91AF919F918F913F912F910F9038
:100D70000FBE0F901F901895CF92DF92EF92FF92C7
:100D80000F931F93CF93DF937C016C0187E0C80E14
:100D9000D11CC0E0D0E0062F10E0B8010C2E02C03C
:100DA000759567950A94E2F76170F60181916F017C
:100DB0000E94D4052196C430D10579F7C701DF918F
:100DC000CF911F910F91FF90EF90DF90CF900C94F7
:100DD0002006CF92DF92EF92FF920F931F93CF9353
:100DE000DF93EC01F62E642F8C810E94D4058D8157
:100DF0008F3F19F060E00E94D4058F850F2D10E021
:100E000084FF25C06E0187E0C80ED11CE12CF12CB7
:100E1000B8010E2C02C0759567950A94E2F76170CF
:100E2000F60181916F010E94D405FFEFEF1AFF0ACE
:100E300088E0E816F10461F7CE01DF91CF911F91B0
:100E40000F91FF90EF90DF90CF900C942006B801A7
:100E500084E0759567958A95E1F7CE010E94BC06FE
:100E60006F2DCE01DF91CF911F910F91FF90EF90E9
:100E7000DF90CF900C94BC0641E00E94E90681E02F
:100E800090E0089540E00C94E90661E00E9442077A
:100E90008BE39FE10197F1F708951F920F920FB630
:100EA0000F9211242F933F934F935F936F937F93F0
:100EB0008F939F93AF93BF93EF93FF93E0913D0286
:100EC000F0913E02309709F451C0968DA685B78502
:100ED000858591FF04C09C91892329F447C09C918A
:100EE000892309F043C0A389B4899C9185898095A1
:100EF00089238C93868997890197F1F7608D718D8D
:100F0000A685B785558538E020E0CB010197F1F73C
:100F1000822F90E095958795282F4C91452309F0D5
:100F20002068315091F7868D81FD209580913C029B
:100F300090E001968F73992730913B02381749F062
:100F4000A0913C02B0E0AE50BE4F2C9380933C0287
:100F500003C0868D8160868F828D938D0197F1F716
:100F6000A389B4899C918589892B8C93FF91EF91FA
:100F7000BF91AF919F918F917F916F915F914F91B1
:100F80003F912F910F900FBE0F901F901895EF92E9
:100F9000FF920F931F93CF93DF93EC01623018F011
:100FA0008F8588608F876B8B1C8A80E48D8B80E1B6
:100FB0008E8B80E58F8B61E08C810E9436068D815F
:100FC0008F3F19F061E00E94360661E08E810E9439
:100FD00036067E0187E0E80EF11C00E010E08F8508
:100FE00084FD03C084E090E002C088E090E0081730
:100FF00019074CF461E0F70181917F010E943606E8
:101000000F5F1F4FECCF8BE39DE00197F1F760E09E
:101010008C810E94D40560E08E810E94D4058D8170
:101020008F3F19F060E00E94D4056F8564FD1DC0FC
:1010300063E0CE010E94BC060BE416E4C8010197F0
:10104000F1F763E0CE010E94BC06C8010197F1F7F9
:1010500063E0CE010E94BC0683E592E00197F1F7C0
:1010600062E0CE010E94BC0616C06062CE010E9402
:1010700042078BE496E40197F1F76F856062CE0139
:101080000E94420783E592E00197F1F76F85606265
:10109000CE010E9442076F856062CE010E94420726
:1010A00084E0888B6CE0CE010E944207CE010E9452
:1010B000450782E0898B66E0CE01DF91CF911F91D9
:1010C0000F91FF90EF900C944207BC018BE093E0EE
:1010D0000C947404643008F063E090911E03691767
:1010E00010F06FEF690FE62FF0E0E55FFC4F948999
:1010F000682F690F60688BE093E00C9442078F9231
:101100009F92AF92BF920F931F93CF93DF93CDB770
:10111000DEB7A1970FB6F894DEBF0FBECDBF19A200
:10112000423008F44AE08E010F5D1F4F842E912C4F
:10113000A12CB12CA50194010E949613E62FB901B0
:10114000CA0101501109EA3014F4E05D01C0E95C04
:10115000D801EC93232B242B252B61F7B8018BE0CE
:1011600093E00E947404A1960FB6F894DEBF0FBE00
:10117000CDBFDF91CF911F910F91BF90AF909F9006
:101180008F900895E0910B03F0910C030190F08192
:10119000E02D682F8BE093E00994CF92DF92EF92DD
:1011A000FF92CF93DF936C01990FEE08FF08F7FED3
:1011B00017C08DE20E94C208EC0166277727CB0199
:1011C0006C197D098E099F094AE00E947F088C0FE7
:1011D0009D1FDF91CF91FF90EF90DF90CF9008950A
:1011E0004AE0C701B601DF91CF91FF90EF90DF9009
:1011F000CF900C947F08CF93DF93CDB7DEB7C55463
:10120000D1090FB6F894DEBF0FBECDBF789484B578
:10121000826084BD84B5816084BD85B5826085BDF2
:1012200085B5816085BD80916E00816080936E0080
:101230001092810080918100826080938100809172
:101240008100816080938100809180008160809323
:1012500080008091B10084608093B1008091B000E3
:1012600081608093B00080917A00846080937A00DE
:1012700080917A00826080937A0080917A00816008
:1012800080937A0080917A00806880937A0010922F
:10129000C10062E08BE093E00E94C707E0915F022B
:1012A000F091600282E08083E0915B02F0915C0249
:1012B0001082E0915D02F0915E0280E180831092E5
:1012C0006702E0916302F091640286E08083E0911E
:1012D0006102F0916202808180618083E09161020D
:1012E000F0916202808188608083E0916102F091D8
:1012F0006202808180688083E0916102F0916202E5
:1013000080818F7D808360E082E00E946A0887E4AC
:1013100091E00E94650861E086E00E946A0885E528
:1013200091E00E9465081092070310920603109244
:1013300005031092040310920303109202038DE937
:1013400091E090930903809308039091F8029631FD
:1013500008F057C02DEB30E03093030320930203D5
:101360002BE931E030930503209304032CE231E0B4
:10137000309307032093060320916800983050F0C3
:1013800031E09E3008F430E081E001C0880F3A95EA
:10139000EAF701C084E0822B80936800983038F02F
:1013A0009E3040F0963148F020E030E008C02DE655
:1013B00030E005C02BE630E002C02CE630E0309390
:1013C00000032093FF02983030F481E001C0880FC1
:1013D0009A95EAF70EC0292F30E09E3018F4285075
:1013E000310902C02E50310981E001C0880F2A95D1
:1013F000EAF7809301038091080390910903019714
:10140000F1F78091060390910703892B21F18091D8
:101410003D0290913E0222E08C3E9207E1F000975F
:1014200011F00E94380380910A038E7F80930A0393
:1014300010923C0210923B028CEE92E090933E029E
:1014400080933D02E091FF02F09100039081809132
:101450000103892B808368EE73E080E090E00E94B6
:101460004C026AE571E0CE0182960E94220421E0DE
:101470004AE050E0BE016E5D7F4FCE0101960E94B2
:10148000A804CE0101960E943704CE0182960E94E4
:10149000370466E671E0CE0182960E94220421E0C4
:1014A0004AE050E0BE016E5D7F4FCE0101960E9482
:1014B000A804CE0101960E943704CE0182960E94B4
:1014C00037046AE771E0CE0182960E94220468E345
:1014D00071E0CE0101960E942204BE016E5D7F4F35
:1014E0008FE492E00E9489040E9486026B017C01D5
:1014F0002AE0C20ED11CE11CF11C0E9486026C1570
:101500007D058E059F05B0F48FE492E00E94660190
:10151000892B99F38FE492E00E94440188A719A6D1
:1015200041E050E0BE01685D7F4FCE0101960E9410
:101530007B03EACFBE016F5F7F4F8FE492E00E9492
:101540008904CE0101960E943704CE0182960E9442
:10155000370468EE73E080E090E00E944C028FE078
:101560000E94100290934E0280934D0280E10E94EF
:10157000100290934C0280934B0281E10E94100272
:1015800090934A02809349028BE093E00E944507C2
:1015900060E080E00E946A0886E991E00E946508A8
:1015A00080914D0290914E020E94CD0860E089E04A
:1015B0000E946A088BE991E00E94650880914B02C5
:1015C00090914C020E94CD0861E085E00E946A087B
:1015D00080EA91E00E9465088091490290914A0258
:1015E0000E94CD0860ED77E080E090E00E944C0220
:1015F0008BE093E00E9445078EE00E941002BC0140
:10160000990F880B990B0E940F112FE632E143E0EE
:1016100050E40E94D012609345027093460280937A
:1016200047029093480220E030E040E151E40E94FC
:101630006E1120E030E040EA50E40E94D01220E039
:1016400030E040E052E40E946412609341027093E3
:101650004202809343029093440260E080E00E9443
:101660006A0885EA91E00E946508C0904102D09026
:101670004202E0904302F0904402A7019601C701A4
:10168000B6010E947D13882319F06DEA71E01AC03B
:1016900046015701E894B7F82FEF3FEF4FE75FE7B8
:1016A000C501B4010E947D13811111C02FEF3FEFDE
:1016B0004FE75FE7C501B4010E94081118163CF41A
:1016C00061EB71E08BE093E00E94740472C02FEF35
:1016D0003FEF4FE75FE4C701B6010E947813181689
:1016E0001CF465EB71E0EECF2FEF3FEF4FE75FECBF
:1016F000C701B6010E94081187FDF3CF20E030E05A
:10170000A901C701B6010E94081187FF07C08DE239
:101710000E94C208F7FAF094F7F8F0942AE037ED47
:1017200043EA5BE3C701B6010E9464124B015C010E
:101730000E9449136B017C010E940D119B01AC01B9
:10174000C501B4010E9463124B015C014AE0C7016C
:10175000B6010E947F088EE20E94C20820E030E0BD
:1017600040E251E4C501B4010E946E114B015C01DD
:101770000E9449136B01E12CF12C4AE0C701B6012C
:101780000E947F08C701B6010E940D119B01AC01A8
:10179000C501B4010E94631220E030E040E251E450
:1017A0000E946E110E94491380E090E04AE00E947E
:1017B0007F0889EB91E00E94650883E10E94100296
:1017C000BC01990F880B990B0E940F1126EF38E28C
:1017D0004CE950E40E946E1120E030E048EC51E406
:1017E0000E94D0120E9442137093400260933F0205
:1017F00061E080E00E946A088CEB91E00E9465083D
:1018000080913F02909140020E94CD0885EC91E0CA
:101810000E94650860ED77E080E090E00E944C0255
:101820008BE093E00E944507609141027091420273
:1018300080914302909144021BA21AA21DA21CA2F5
:101840001FA21EA28E010F5F1F4F22E044E00E94E4
:10185000420E009771F0FC0101900020E9F73197EA
:10186000AF01481B590BBC01CE0182960E94E703D1
:1018700004C0CE0182960E94A90365EA71E0CE0100
:1018800001960E942204BE016E5D7F4FCE0101963B
:101890000E94D40369EB71E00E94BB03BC01CE013E
:1018A000805C9F4F0E940804CE0101960E9437047D
:1018B000CE0182960E94370460914D0270914E02D3
:1018C0004AE0CE0101960E943C046AEC71E0CE0130
:1018D00082960E942204BE016F5F7F4FCE018296E6
:1018E0000E94D403BC01CE01CA960E940804CE0116
:1018F00082960E943704CE0101960E9437046091BF
:101900004B0270914C024AE0CE0101960E943C04C9
:1019100064ED71E0CE0182960E942204BE016F5FE9
:101920007F4FCE0182960E94D403BC01CE01C496A3
:101930000E940804CE0182960E943704CE010196CF
:101940000E9437046091490270914A024AE0CE0138
:1019500001960E943C046EED71E0CE0182960E94D9
:101960002204BE016F5F7F4FCE0182960E94D40396
:10197000BC01CE018E960E940804CE0182960E9480
:101980003704CE0101960E94370460913F027091A6
:1019900040024AE0CE0101960E943C0468EE71E0EC
:1019A000CE0182960E942204BE016F5F7F4FCE015E
:1019B00082960E94D40365EC71E00E94BB03BC01D7
:1019C000CE0188960E940804CE0182960E943704B8
:1019D000CE0101960E943704BE01605C7F4FCE01AC
:1019E00001960E940804CE0101960E94FB04CE01DC
:1019F00001960E943704BE01665C7F4FCE010196BE
:101A00000E940804CE0101960E94FB04CE010196BB
:101A10000E943704BE016C5C7F4FCE0101960E948C
:101A20000804CE0101960E94FB04CE0101960E949B
:101A30003704BE01625D7F4FCE0101960E9408040B
:101A4000CE0101960E94FB04CE0101960E9437044C
:101A5000BE01685D7F4FCE0101960E940804CE0151
:101A600001960E94FB04CE0101960E9437046AE0B1
:101A700070E080E090E00E944C02CE0188960E94C7
:101A80003704CE018E960E943704CE01C4960E9480
:101A90003704CE01CA960E943704CE01805C9F4F66
:101AA0000E9437040E9406025ACD8CE191E0909387
:101AB000ED028093EC028CEE92E00C943803CF920E
:101AC000DF92EF92FF92109252021092510298EE22
:101AD000C92E93E0D92EE12CF12CC0925302D09262
:101AE0005402E0925502F09256028AE091E09093FF
:101AF000500280934F0285EC90E090935C028093BB
:101B00005B0284EC90E090935E0280935D0280EC37
:101B100090E09093600280935F0281EC90E090935C
:101B200062028093610282EC90E090936402809361
:101B3000630286EC90E090936602809365021092B7
:101B400068021092690210926A0210926B0210925F
:101B50000E0310920D038EE291E090930C0380939C
:101B60000B038DE080930F038FEF809310038CE0C5
:101B7000809311038BE0809312038AE08093130318
:101B800089E08093140388E0809315031092160374
:101B900010921703109218031092190310921A034F
:101BA00061E08BE093E00E94C7071092EF02109271
:101BB000EE02C092F002D092F102E092F202F092B4
:101BC000F3028CE191E09093ED028093EC0210928D
:101BD0000303109202031092050310920403109263
:101BE00007031092060310920903109208036091F4
:101BF0000A036E7F6D7F60930A036695617081E0D2
:101C0000682783E00E94D40561E083E00E943606E5
:101C1000EBEAF1E0E491E093FC02E7E9F1E0E49122
:101C2000F0E0EE0FFF1FE058FE4F859194919093E6
:101C3000FE028093FD0260E082E00E943606809101
:101C40000A0381FD04C061E082E00E94D40582E0C5
:101C50008093F802EAEAF1E0E491E093F902E6E920
:101C6000F1E0E491F0E0EE0FFF1FE657FE4F8591A3
:101C700094919093FB028093FA02FF90EF90DF9093
:101C8000CF900895EF920F931F93CF93DF93E801C6
:101C900047FD02C034E001C034E1E42F440FFF0BE4
:101CA000F7FF03C0F195E195F109E32E022F2E2FE6
:101CB000AE010E94920ECE01DF91CF911F910F9144
:101CC000EF9008954532510520F4423010F00C9405
:101CD0006D0EFB011082CB010895BB274A3031F411
:101CE000992322F4BDE2909581959F4F0C94790E33
:101CF000BB27FB015527AA27880F991FAA1FA417E6
:101D000010F0A41B83955051B9F7A05DAA3308F0D9
:101D1000A95DA193009779F7B111B1931192CB010D
:101D20000C94F8104F925F926F927F929F92AF92B5
:101D3000BF92CF92DF92EF92FF920F931F93CF93B8
:101D4000DF93CDB7DEB729970FB6F894DEBF0FBE8D
:101D5000CDBF6A01122FB02E2BE3201720F0FF24F5
:101D6000F394F00E02C0BCE3FB2E0F2D27E0AE0172
:101D70004F5F5F4F0E942010AC018981982F9970AE
:101D8000913031F0E1FC06C0E0FE06C090E205C0F3
:101D90009DE203C09BE201C090E0EE2DE07183FF65
:101DA0003CC0911102C083E001C084E0811718F4A7
:101DB000212F281B01C020E0E1110BC0F601822F6A
:101DC00030E2882319F031938150FBCFC20ED11C31
:101DD00020E0992329F0D6019C93F60131966F01FA
:101DE000C6010396E2FE0AC03EE4D6013C9341E4FC
:101DF00011964C93119712963C9306C03EE6F6015D
:101E0000308341E641833283FC01322F40E23323A9
:101E100009F442C041933150FACF82FF44C091117E
:101E200002C083E001C084E0811718F4212F281B31
:101E300001C020E0E1110BC0F601822F30E28823BF
:101E400019F031938150FBCFC20ED11C20E09923B1
:101E500029F0D6019C93F60131966F01C6010396D5
:101E6000E2FE0BC039E4D6013C933EE411963C936C
:101E7000119736E412963C9307C039E6F601308399
:101E80003EE6318336E63283FC01322F40E23323D3
:101E900019F041933150FBCFFC01E20FF11D10828C
:101EA0008EEF9FEFB7C0F1E0911101C0F0E06F2F0E
:101EB00070E01416150624F49A012F5F3F4F02C0FC
:101EC00021E030E0260F371FBB2029F06B2D70E09A
:101ED0006F5F7F4F02C060E070E0260F371F612FF9
:101EE00070E0261737071CF4121B212F01C020E0D9
:101EF0003E2D387159F4D601322F60E2332319F0A8
:101F00006D933150FBCFC20ED11C20E0FF2331F086
:101F1000D6019C93B6016F5F7F4F6B01E1110BC03F
:101F2000F601922F30E3992319F031939150FBCFB2
:101F3000C20ED11C20E09F2D940F3A81782F707132
:101F4000A72E84FF03C0313309F49150191624F4ED
:101F5000993018F098E001C091E0E42F852F57FFE9
:101F600002C0E0E080E06E2F782FE0E0F0E0AEE22B
:101F70009A2E3A01691A71082A01461A570A0B2D3E
:101F800010E01195019511096F3F8FEF780729F443
:101F9000D6019C92C60101966C014617570784F042
:101FA000661677066CF47F01E40CF51CA1E0B0E046
:101FB000AC0FBD1FEA0EFB1ED7011196BC9002C0EC
:101FC00090E3B92E615071093196C60101967C01EA
:101FD0006017710724F0D601BC926C01D5CF64174D
:101FE000750741F4363320F4353321F4A11002C0D3
:101FF00081E3B82EF601B082F701822F90E28823A8
:1020000019F091938150FBCFF701E20FF11D10827F
:1020100080E090E029960FB6F894DEBF0FBECDBFEA
:10202000DF91CF911F910F91FF90EF90DF90CF90B4
:10203000BF90AF909F907F906F905F904F9008956A
:10204000283008F027E03327DA01990F311D87FD8A
:10205000916000966105710539F432602E5F3D9301
:1020600030E32A95E1F708959F3F30F080387105FD
:10207000610509F03C5F3C5F3D93913008F080685A
:10208000911DDF93CF931F930F93FF92EF92192F20
:10209000987F9695E92F96959695E90FFF27EE5331
:1020A000FF4F99273327EE24FF24A701E70105906E
:1020B0000894079428F4360FE71EF81E491F511D97
:1020C000660F771F881F991F0694A1F70590079444
:1020D00028F4E70EF81E491F561FC11D770F881FF1
:1020E000991F661F0694A1F70590079428F4F80E2F
:1020F000491F561FC71FD11D880F991F661F771FC5
:102100000694A1F70590079420F4490F561FC71FA6
:10211000D81F990F661F771F881F0694A9F784910F
:102120001095177041F0D695C79557954795F79438
:10213000E7941A95C1F7E8E6F0E0689415901591D8
:1021400035916591959105907FE27395E118F10ABB
:10215000430B560BC90BD009C0F7E10CF11E431F0E
:10216000561FC91FD01D7EF4703311F48A95E6CF37
:10217000E894015030F0080F0AF40027021708F421
:10218000202F2395022F7A3328F079E37D932A9527
:10219000E9F710C07D932A9589F60694979567957F
:1021A000379517951794E118F10A430B560BC90B95
:1021B000D00998F023957E9173957A3308F070E3F7
:1021C0007C932013B8F77E9170617D9330F08395F6
:1021D00071E37D9370E32A95E1F71124EF90FF906E
:1021E0000F911F91CF91DF91992787FD90950895C9
:1021F000DC01FC01672F71917723E1F7329704C06E
:102200007C916D9370836291AE17BF07C8F30895F8
:102210000E944A1108F481E00895E89409C097FBF0
:102220003EF490958095709561957F4F8F4F9F4FAD
:102230009923A9F0F92F96E9BB279395F6958795F1
:1022400077956795B795F111F8CFFAF4BB0F11F4B4
:1022500060FF1BC06F5F7F4F8F4F9F4F16C088235B
:1022600011F096E911C0772321F09EE8872F762F91
:1022700005C0662371F096E8862F70E060E02AF0D2
:102280009A95660F771F881FDAF7880F96958795BE
:1022900097F90895990F0008550FAA0BE0E8FEEF93
:1022A00016161706E807F907C0F012161306E4071A
:1022B000F50798F0621B730B840B950B39F40A2613
:1022C00061F0232B242B252B21F408950A2609F4F1
:1022D000A140A6958FEF811D811D08950E94811157
:1022E0000C94F2110E94E41138F00E94EB1120F0DE
:1022F000952311F00C94DB110C94E11111240C9432
:1023000026120E94031270F3959FC1F3950F50E0BF
:10231000551F629FF001729FBB27F00DB11D639F97
:10232000AA27F00DB11DAA1F649F6627B00DA11D3D
:10233000661F829F2227B00DA11D621F739FB00DE3
:10234000A11D621F839FA00D611D221F749F332753
:10235000A00D611D231F849F600D211D822F762FEC
:102360006A2F11249F5750409AF0F1F088234AF0C9
:10237000EE0FFF1FBB1F661F771F881F9150504035
:10238000A9F79E3F510580F00C94DB110C942612A6
:102390005F3FE4F3983ED4F3869577956795B795BC
:1023A000F795E7959F5FC1F7FE2B880F911D9695D6
:1023B000879597F9089597F99F6780E870E060E046
:1023C00008959FEF80EC089500240A9416161706CE
:1023D00018060906089500240A9412161306140616
:1023E00005060895092E0394000C11F4882352F079
:1023F000BB0F40F4BF2B11F460FF04C06F5F7F4F31
:102400008F4F9F4F089557FD9058440F551F59F017
:102410005F3F71F04795880F97FB991F61F09F3FD1
:1024200079F087950895121613061406551FF2CFFA
:102430004695F1DF08C0161617061806991FF1CF4A
:1024400086957105610508940895E894BB27662771
:102450007727CB0197F908952F923F924F925F9281
:102460006F927F928F929F92AF92BF92CF92DF92A4
:10247000EF92FF920F931F93CF93DF93CDB7DEB709
:10248000CA1BDB0B0FB6F894DEBF0FBECDBF09949D
:102490002A88398848885F846E847D848C849B84F4
:1024A000AA84B984C884DF80EE80FD800C811B8102
:1024B000AA81B981CE0FD11D0FB6F894DEBF0FBE31
:1024C000CDBFED0108955058BB27AA270E947B126B
:1024D0000C94F2110E94E41138F00E94EB1120F0EC
:1024E00039F49F3F19F426F40C94E1110EF4E095B1
:1024F000E7FB0C94DB11E92F0E94031258F3BA1783
:10250000620773078407950720F079F4A6F50C9409
:1025100025120EF4E0950B2EBA2FA02D0B01B90158
:1025200090010C01CA01A0011124FF27591B99F049
:10253000593F50F4503E68F11A16F040A22F232F55
:10254000342F4427585FF3CF469537952795A795A5
:10255000F0405395C9F77EF41F16BA0B620B730B4C
:10256000840BBAF09150A1F0FF0FBB1F661F771FBD
:10257000881FC2F70EC0BA0F621F731F841F48F472
:10258000879577956795B795F7959E3F08F0B0CFFB
:102590009395880F08F09927EE0F979587950895E2
:1025A0000E94E4120C94F2110E94EB1158F00E9468
:1025B000E41140F029F45F3F29F00C94DB11511134
:1025C0000C9426120C94E1110E94031268F39923D3
:1025D000B1F3552391F3951B550BBB27AA2762171F
:1025E0007307840738F09F5F5F4F220F331F441F2C
:1025F000AA1FA9F335D00E2E3AF0E0E832D0915060
:102600005040E695001CCAF72BD0FE2F29D0660F4C
:10261000771F881FBB1F261737074807AB07B0E88F
:1026200009F0BB0B802DBF01FF2793585F4F3AF095
:102630009E3F510578F00C94DB110C9426125F3FFD
:10264000E4F3983ED4F3869577956795B795F7951B
:102650009F5FC9F7880F911D9695879597F9089503
:10266000E1E0660F771F881FBB1F6217730784079F
:10267000BA0720F0621B730B840BBA0BEE1F88F7AE
:10268000E09508950E9449136894B1110C942612A4
:1026900008950E940B1288F09F5798F0B92F992740
:1026A000B751B0F0E1F0660F771F881F991F1AF03D
:1026B000BA95C9F714C0B13091F00E942512B1E06B
:1026C00008950C942512672F782F8827B85F39F06A
:1026D000B93FCCF3869577956795B395D9F73EF4D6
:1026E00090958095709561957F4F8F4F9F4F08957E
:1026F0000E944A1108F48FEF08950E944A11880B36
:10270000990B089597FB072E16F4009407D077FDD8
:1027100009D00E94B81307FC05D03EF4909581952E
:102720009F4F0895709561957F4F0895A1E21A2EED
:10273000AA1BBB1BFD010DC0AA1FBB1FEE1FFF1F65
:10274000A217B307E407F50720F0A21BB30BE40BB5
:10275000F50B661F771F881F991F1A9469F76095FC
:102760007095809590959B01AC01BD01CF010895B6
:10277000AA1BBB1B51E107C0AA1FBB1FA617B707A7
:1027800010F0A61BB70B881F991F5A95A9F78095C3
:102790009095BC01CD010895EE0FFF1F0590F491B7
:1027A000E02D0994CF93DF938230910510F482E0FD
:1027B00090E0E0912503F091260320E030E0C0E0B6
:1027C000D0E0309711F14081518148175907C0F08E
:1027D0004817590761F482819381209719F09B83F0
:1027E0008A832BC0909326038093250326C021154E
:1027F000310519F04217530718F49A01BE01DF01A1
:10280000EF010280F381E02DDCCF2115310509F1C4
:10281000281B390B2430310590F412968D919C9130
:1028200013976115710521F0FB019383828304C026
:102830009093260380932503FD01329644C0FD0149
:10284000E20FF31F81939193225031092D933C9312
:102850003AC02091230330912403232B41F420918B
:10286000020130910301309324032093230320912C
:102870000001309101012115310541F42DB73EB71A
:102880004091040150910501241B350BE091230375
:10289000F0912403E217F307A0F42E1B3F0B281737
:1028A000390778F0AC014E5F5F4F2417350748F0C9
:1028B0004E0F5F1F50932403409323038193919302
:1028C00002C0E0E0F0E0CF01DF91CF9108950F93D7
:1028D0001F93CF93DF93009709F48CC0FC013297CC
:1028E0001382128200912503109126030115110510
:1028F00081F420813181820F931F20912303309135
:1029000024032817390779F5F0932403E093230370
:1029100071C0D80140E050E0AE17BF0750F41296E6
:102920002D913C911397AD012115310509F1D90184
:10293000F3CF9D01DA013383228360817181860F99
:10294000971F8217930769F4EC0128813981260FBC
:10295000371F2E5F3F4F318320838A819B81938372
:102960008283452B29F4F0932603E093250342C08C
:102970001396FC93EE931297ED01499159919E01A4
:10298000240F351FE217F30771F480819181840FC2
:10299000951F029611969C938E9382819381139634
:1029A0009C938E931297E0E0F0E0D80112968D91FF
:1029B0009C911397009719F0F8018C01F6CF8D9137
:1029C0009C9198012E5F3F4F820F931F209123030C
:1029D000309124032817390769F4309729F41092AD
:1029E00026031092250302C013821282109324033F
:1029F00000932303DF91CF911F910F910895A0E0E1
:102A0000B0E0E5E0F5E10C943012EC01009721F420
:102A1000CB010E94D213B8C0FC01E60FF71F9C0146
:102A200022503109E217F30708F4ACC0D9010D9127
:102A30001C91119706171707B0F00530110508F41F
:102A40009FC0C80104978617970708F499C00250E1
:102A50001109061B170B019311936D937C93CF0102
:102A60000E9467148DC05B01A01AB10A4C01800E50
:102A7000911EA0912503B091260340E050E0E12C87
:102A8000F12C109709F44AC0A815B905D1F56D903D
:102A90007C901197630182E0C80ED11CCA14DB043C
:102AA00080F1A3014A195B096A0182E0C80ED11CBA
:102AB0001296BC9012971396AC91B5E0CB16D10448
:102AC00040F0B282A38351834083D9016D937C93FC
:102AD0000AC00E5F1F4FC301800F911FF901918340
:102AE0008083EB2DFA2FE114F10431F0D701139616
:102AF000FC93EE93129744C0F0932603E0932503D2
:102B00003FC08D919C9111974817590708F4AC016B
:102B10007D0112960D90BC91A02DB3CF809123031F
:102B20009091240388159905E1F446175707C8F4D6
:102B30008091000190910101009741F48DB79EB7FB
:102B40004091040150910501841B950BE817F9078A
:102B5000C8F4F0932403E0932303F90171836083A5
:102B60000FC0CB010E94D2137C01009759F0A8013D
:102B7000BE010E94CE15CE010E946714C70104C099
:102B8000CE0102C080E090E0CDB7DEB7EEE00C945D
:102B90004C1281E090E0F8940C94DE15FB01DC010E
:102BA00002C001900D9241505040D8F70895FB01AA
:102BB000DC0101900D920020E1F7089510E0CFEDC7
:102BC000D0E004C0FE010E94CC132196C03ED10784
:062BD000C9F7F894FFCFE5
:102BD600000027038000000000009D010A01350166
:102BE600E40166014401580100000000AB020A013D
:102BF6004F03AA02FF0217039202000000003C07DF
:102C06000A014F034E030D0A0041542B434950530A
:102C1600454E443D302C00436F6E6E656374696E9D
:102C26006720746F00576966690041542B43495009
:102C36004D55583D310041542B434950534552564A
:102C460045523D312C333137390057696669206367
:102C56006F6E6E656374696F6E2069732072756E30
:102C66006E696E67210078203A200079203A2000AC
:102C76007A203A200054656D70203A20006E616E0D
:102C860000696E66006F76660020460050756C73AC
:102C960065203A20002042504D00785F61786973C4
:102CA600203A2000795F61786973203A20007A5FC4
:102CB60061786973203A200050756C736573203A09
:022CC6002000EC
:107E0000112484B714BE81FFF0D085E080938100F7
:107E100082E08093C00088E18093C10086E0809377
:107E2000C20080E18093C4008EE0C9D0259A86E02C
:107E300020E33CEF91E0309385002093840096BBD3
:107E4000B09BFECF1D9AA8958150A9F7CC24DD24C4
:107E500088248394B5E0AB2EA1E19A2EF3E0BF2EE7
:107E6000A2D0813461F49FD0082FAFD0023811F036
:107E7000013811F484E001C083E08DD089C08234E0
:107E800011F484E103C0853419F485E0A6D080C0E4
:107E9000853579F488D0E82EFF2485D0082F10E0AE
:107EA000102F00270E291F29000F111F8ED06801E7
:107EB0006FC0863521F484E090D080E0DECF843638
:107EC00009F040C070D06FD0082F6DD080E0C81688
:107ED00080E7D80618F4F601B7BEE895C0E0D1E017
:107EE00062D089930C17E1F7F0E0CF16F0E7DF06D8
:107EF00018F0F601B7BEE89568D007B600FCFDCFD4
:107F0000A601A0E0B1E02C9130E011968C91119780
:107F100090E0982F8827822B932B1296FA010C0160
:107F200087BEE89511244E5F5F4FF1E0A038BF0790
:107F300051F7F601A7BEE89507B600FCFDCF97BE46
:107F4000E89526C08437B1F42ED02DD0F82E2BD052
:107F50003CD0F601EF2C8F010F5F1F4F84911BD097
:107F6000EA94F801C1F70894C11CD11CFA94CF0C13
:107F7000D11C0EC0853739F428D08EE10CD085E9AC
:107F80000AD08FE07ACF813511F488E018D01DD067
:107F900080E101D065CF982F8091C00085FFFCCF94
:107FA0009093C60008958091C00087FFFCCF809118
:107FB000C00084FD01C0A8958091C6000895E0E648
:107FC000F0E098E1908380830895EDDF803219F02E
:107FD00088E0F5DFFFCF84E1DECF1F93182FE3DFCA
:107FE0001150E9F7F2DF1F91089580E0E8DFEE27F6
:047FF000FF270994CA
:027FFE00040479
:0400000300007E007B
:00000001FF
